{
  "contractName": "HealthcareApp",
  "abi": [
    {
      "anonymous": false,
      "inputs": [
        {
          "indexed": true,
          "internalType": "address",
          "name": "patientAddress",
          "type": "address"
        },
        {
          "indexed": false,
          "internalType": "address",
          "name": "doctorAddress",
          "type": "address"
        }
      ],
      "name": "AssignedDoctor",
      "type": "event"
    },
    {
      "anonymous": false,
      "inputs": [
        {
          "indexed": true,
          "internalType": "address",
          "name": "doctorAddress",
          "type": "address"
        },
        {
          "indexed": false,
          "internalType": "string",
          "name": "name",
          "type": "string"
        }
      ],
      "name": "NewDoctor",
      "type": "event"
    },
    {
      "anonymous": false,
      "inputs": [
        {
          "indexed": true,
          "internalType": "address",
          "name": "patientAddress",
          "type": "address"
        },
        {
          "indexed": false,
          "internalType": "string",
          "name": "name",
          "type": "string"
        },
        {
          "indexed": false,
          "internalType": "uint256",
          "name": "age",
          "type": "uint256"
        }
      ],
      "name": "NewPatient",
      "type": "event"
    },
    {
      "anonymous": false,
      "inputs": [
        {
          "indexed": true,
          "internalType": "address",
          "name": "patientAddress",
          "type": "address"
        },
        {
          "indexed": false,
          "internalType": "string",
          "name": "diagnosis",
          "type": "string"
        }
      ],
      "name": "UpdatedDiagnosis",
      "type": "event"
    },
    {
      "inputs": [
        {
          "internalType": "address",
          "name": "",
          "type": "address"
        }
      ],
      "name": "doctors",
      "outputs": [
        {
          "internalType": "string",
          "name": "name",
          "type": "string"
        }
      ],
      "stateMutability": "view",
      "type": "function"
    },
    {
      "inputs": [
        {
          "internalType": "address",
          "name": "",
          "type": "address"
        }
      ],
      "name": "patients",
      "outputs": [
        {
          "internalType": "string",
          "name": "name",
          "type": "string"
        },
        {
          "internalType": "uint256",
          "name": "age",
          "type": "uint256"
        },
        {
          "internalType": "string",
          "name": "diagnosis",
          "type": "string"
        },
        {
          "internalType": "address",
          "name": "doctor",
          "type": "address"
        }
      ],
      "stateMutability": "view",
      "type": "function"
    },
    {
      "inputs": [
        {
          "internalType": "string",
          "name": "_name",
          "type": "string"
        }
      ],
      "name": "registerDoctor",
      "outputs": [],
      "stateMutability": "nonpayable",
      "type": "function"
    },
    {
      "inputs": [
        {
          "internalType": "string",
          "name": "_name",
          "type": "string"
        },
        {
          "internalType": "uint256",
          "name": "_age",
          "type": "uint256"
        },
        {
          "internalType": "string",
          "name": "_diagnosis",
          "type": "string"
        }
      ],
      "name": "addPatient",
      "outputs": [],
      "stateMutability": "nonpayable",
      "type": "function"
    },
    {
      "inputs": [
        {
          "internalType": "address",
          "name": "_patientAddress",
          "type": "address"
        },
        {
          "internalType": "address",
          "name": "_doctorAddress",
          "type": "address"
        }
      ],
      "name": "assignDoctor",
      "outputs": [],
      "stateMutability": "nonpayable",
      "type": "function"
    },
    {
      "inputs": [
        {
          "internalType": "string",
          "name": "_diagnosis",
          "type": "string"
        }
      ],
      "name": "updateDiagnosis",
      "outputs": [],
      "stateMutability": "nonpayable",
      "type": "function"
    }
  ],
  "bytecode": "0x608060405234801561000f575f80fd5b506110d08061001d5f395ff3fe608060405234801561000f575f80fd5b5060043610610060575f3560e01c80630869cfbc14610064578063166f8f45146100975780636b45a4e2146100b35780638f09ab5b146100cf578063a9583c22146100eb578063d65da44a1461011b575b5f80fd5b61007e600480360381019061007991906108e4565b610137565b60405161008e94939291906109c0565b60405180910390f35b6100b160048036038101906100ac9190610a11565b61028d565b005b6100cd60048036038101906100c89190610b7b565b6104b5565b005b6100e960048036038101906100e49190610b7b565b6105e0565b005b610105600480360381019061010091906108e4565b610694565b6040516101129190610bc2565b60405180910390f35b61013560048036038101906101309190610c0c565b610734565b005b5f602052805f5260405f205f91509050805f01805461015590610cc1565b80601f016020809104026020016040519081016040528092919081815260200182805461018190610cc1565b80156101cc5780601f106101a3576101008083540402835291602001916101cc565b820191905f5260205f20905b8154815290600101906020018083116101af57829003601f168201915b5050505050908060010154908060020180546101e790610cc1565b80601f016020809104026020016040519081016040528092919081815260200182805461021390610cc1565b801561025e5780601f106102355761010080835404028352916020019161025e565b820191905f5260205f20905b81548152906001019060200180831161024157829003601f168201915b505050505090806003015f9054906101000a900473ffffffffffffffffffffffffffffffffffffffff16905084565b5f60015f3373ffffffffffffffffffffffffffffffffffffffff1673ffffffffffffffffffffffffffffffffffffffff1681526020019081526020015f205f0180546102d890610cc1565b90500361031a576040517f08c379a000000000000000000000000000000000000000000000000000000000815260040161031190610d61565b60405180910390fd5b5f73ffffffffffffffffffffffffffffffffffffffff165f808473ffffffffffffffffffffffffffffffffffffffff1673ffffffffffffffffffffffffffffffffffffffff1681526020019081526020015f206003015f9054906101000a900473ffffffffffffffffffffffffffffffffffffffff1673ffffffffffffffffffffffffffffffffffffffff16146103e6576040517f08c379a00000000000000000000000000000000000000000000000000000000081526004016103dd90610dc9565b60405180910390fd5b805f808473ffffffffffffffffffffffffffffffffffffffff1673ffffffffffffffffffffffffffffffffffffffff1681526020019081526020015f206003015f6101000a81548173ffffffffffffffffffffffffffffffffffffffff021916908373ffffffffffffffffffffffffffffffffffffffff1602179055508173ffffffffffffffffffffffffffffffffffffffff167f5163df5276d8c0eabc55834bcc84f1a879e58bd358727934446c9dc5ab931b30826040516104a99190610de7565b60405180910390a25050565b5f60015f3373ffffffffffffffffffffffffffffffffffffffff1673ffffffffffffffffffffffffffffffffffffffff1681526020019081526020015f205f01805461050090610cc1565b905003610542576040517f08c379a000000000000000000000000000000000000000000000000000000000815260040161053990610d61565b60405180910390fd5b805f803373ffffffffffffffffffffffffffffffffffffffff1673ffffffffffffffffffffffffffffffffffffffff1681526020019081526020015f20600201908161058e9190610f9d565b503373ffffffffffffffffffffffffffffffffffffffff167fa8f17f443c46adb12c6361059acdc4379ba178ce7649c5682ad297aed6c80be7826040516105d59190610bc2565b60405180910390a250565b60405180602001604052808281525060015f3373ffffffffffffffffffffffffffffffffffffffff1673ffffffffffffffffffffffffffffffffffffffff1681526020019081526020015f205f820151815f01908161063f9190610f9d565b509050503373ffffffffffffffffffffffffffffffffffffffff167fda840fdc6e25ecee59643d4e6e943346a95382175b319089a9b4dcf072fc1aa0826040516106899190610bc2565b60405180910390a250565b6001602052805f5260405f205f91509050805f0180546106b390610cc1565b80601f01602080910402602001604051908101604052809291908181526020018280546106df90610cc1565b801561072a5780601f106107015761010080835404028352916020019161072a565b820191905f5260205f20905b81548152906001019060200180831161070d57829003601f168201915b5050505050905081565b60405180608001604052808481526020018381526020018281526020015f73ffffffffffffffffffffffffffffffffffffffff168152505f803373ffffffffffffffffffffffffffffffffffffffff1673ffffffffffffffffffffffffffffffffffffffff1681526020019081526020015f205f820151815f0190816107ba9190610f9d565b506020820151816001015560408201518160020190816107da9190610f9d565b506060820151816003015f6101000a81548173ffffffffffffffffffffffffffffffffffffffff021916908373ffffffffffffffffffffffffffffffffffffffff1602179055509050503373ffffffffffffffffffffffffffffffffffffffff167f6c38d4918977dec69d41056e86db42bd6c5094a75caa05b9267d864f2e69447b848460405161086c92919061106c565b60405180910390a2505050565b5f604051905090565b5f80fd5b5f80fd5b5f73ffffffffffffffffffffffffffffffffffffffff82169050919050565b5f6108b38261088a565b9050919050565b6108c3816108a9565b81146108cd575f80fd5b50565b5f813590506108de816108ba565b92915050565b5f602082840312156108f9576108f8610882565b5b5f610906848285016108d0565b91505092915050565b5f81519050919050565b5f82825260208201905092915050565b5f5b8381101561094657808201518184015260208101905061092b565b5f8484015250505050565b5f601f19601f8301169050919050565b5f61096b8261090f565b6109758185610919565b9350610985818560208601610929565b61098e81610951565b840191505092915050565b5f819050919050565b6109ab81610999565b82525050565b6109ba816108a9565b82525050565b5f6080820190508181035f8301526109d88187610961565b90506109e760208301866109a2565b81810360408301526109f98185610961565b9050610a0860608301846109b1565b95945050505050565b5f8060408385031215610a2757610a26610882565b5b5f610a34858286016108d0565b9250506020610a45858286016108d0565b9150509250929050565b5f80fd5b5f80fd5b7f4e487b71000000000000000000000000000000000000000000000000000000005f52604160045260245ffd5b610a8d82610951565b810181811067ffffffffffffffff82111715610aac57610aab610a57565b5b80604052505050565b5f610abe610879565b9050610aca8282610a84565b919050565b5f67ffffffffffffffff821115610ae957610ae8610a57565b5b610af282610951565b9050602081019050919050565b828183375f83830152505050565b5f610b1f610b1a84610acf565b610ab5565b905082815260208101848484011115610b3b57610b3a610a53565b5b610b46848285610aff565b509392505050565b5f82601f830112610b6257610b61610a4f565b5b8135610b72848260208601610b0d565b91505092915050565b5f60208284031215610b9057610b8f610882565b5b5f82013567ffffffffffffffff811115610bad57610bac610886565b5b610bb984828501610b4e565b91505092915050565b5f6020820190508181035f830152610bda8184610961565b905092915050565b610beb81610999565b8114610bf5575f80fd5b50565b5f81359050610c0681610be2565b92915050565b5f805f60608486031215610c2357610c22610882565b5b5f84013567ffffffffffffffff811115610c4057610c3f610886565b5b610c4c86828701610b4e565b9350506020610c5d86828701610bf8565b925050604084013567ffffffffffffffff811115610c7e57610c7d610886565b5b610c8a86828701610b4e565b9150509250925092565b7f4e487b71000000000000000000000000000000000000000000000000000000005f52602260045260245ffd5b5f6002820490506001821680610cd857607f821691505b602082108103610ceb57610cea610c94565b5b50919050565b7f4f6e6c79207265676973746572656420646f63746f72732063616e20706572665f8201527f6f726d207468697320616374696f6e0000000000000000000000000000000000602082015250565b5f610d4b602f83610919565b9150610d5682610cf1565b604082019050919050565b5f6020820190508181035f830152610d7881610d3f565b9050919050565b7f50617469656e7420616c726561647920686173206120646f63746f72000000005f82015250565b5f610db3601c83610919565b9150610dbe82610d7f565b602082019050919050565b5f6020820190508181035f830152610de081610da7565b9050919050565b5f602082019050610dfa5f8301846109b1565b92915050565b5f819050815f5260205f209050919050565b5f6020601f8301049050919050565b5f82821b905092915050565b5f60088302610e5c7fffffffffffffffffffffffffffffffffffffffffffffffffffffffffffffffff82610e21565b610e668683610e21565b95508019841693508086168417925050509392505050565b5f819050919050565b5f610ea1610e9c610e9784610999565b610e7e565b610999565b9050919050565b5f819050919050565b610eba83610e87565b610ece610ec682610ea8565b848454610e2d565b825550505050565b5f90565b610ee2610ed6565b610eed818484610eb1565b505050565b5b81811015610f1057610f055f82610eda565b600181019050610ef3565b5050565b601f821115610f5557610f2681610e00565b610f2f84610e12565b81016020851015610f3e578190505b610f52610f4a85610e12565b830182610ef2565b50505b505050565b5f82821c905092915050565b5f610f755f1984600802610f5a565b1980831691505092915050565b5f610f8d8383610f66565b9150826002028217905092915050565b610fa68261090f565b67ffffffffffffffff811115610fbf57610fbe610a57565b5b610fc98254610cc1565b610fd4828285610f14565b5f60209050601f831160018114611005575f8415610ff3578287015190505b610ffd8582610f82565b865550611064565b601f19841661101386610e00565b5f5b8281101561103a57848901518255600182019150602085019450602081019050611015565b868310156110575784890151611053601f891682610f66565b8355505b6001600288020188555050505b505050505050565b5f6040820190508181035f8301526110848185610961565b905061109360208301846109a2565b939250505056fea26469706673582212201c81e82389aad1c76f7f92191845a682b7a747609d41dc914739ce12ea57755464736f6c63430008150033",
  "immutableReferences": {},
  "source": "// SPDX-License-Identifier: MIT\npragma solidity ^0.8.0;\n\ncontract HealthcareApp {\n    struct Patient {\n        string name;\n        uint age;\n        string diagnosis;\n        address doctor;\n    }\n\n    struct Doctor {\n        string name;\n    }\n\n    mapping(address => Patient) public patients;\n    mapping(address => Doctor) public doctors;\n\n    event NewPatient(address indexed patientAddress, string name, uint age);\n    event NewDoctor(address indexed doctorAddress, string name);\n    event AssignedDoctor(address indexed patientAddress, address doctorAddress);\n    event UpdatedDiagnosis(address indexed patientAddress, string diagnosis);\n\n    modifier onlyDoctor() {\n        require(\n            bytes(doctors[msg.sender].name).length != 0,\n            \"Only registered doctors can perform this action\"\n        );\n        _;\n    }\n\n    function registerDoctor(string memory _name) public {\n        doctors[msg.sender] = Doctor(_name);\n        emit NewDoctor(msg.sender, _name);\n    }\n\n    function addPatient(\n        string memory _name,\n        uint _age,\n        string memory _diagnosis\n    ) public {\n        patients[msg.sender] = Patient(_name, _age, _diagnosis, address(0));\n        emit NewPatient(msg.sender, _name, _age);\n    }\n\n    function assignDoctor(\n        address _patientAddress,\n        address _doctorAddress\n    ) public onlyDoctor {\n        require(\n            patients[_patientAddress].doctor == address(0),\n            \"Patient already has a doctor\"\n        );\n        patients[_patientAddress].doctor = _doctorAddress;\n        emit AssignedDoctor(_patientAddress, _doctorAddress);\n    }\n\n    function updateDiagnosis(string memory _diagnosis) public onlyDoctor {\n        patients[msg.sender].diagnosis = _diagnosis;\n        emit UpdatedDiagnosis(msg.sender, _diagnosis);\n    }\n}\n",
  "sourcePath": "/Users/docflex/Downloads/Healthcare DApp/contracts/Healthcare.sol",
  "compiler": {
    "name": "solc",
    "version": "0.8.21+commit.d9974bed.Emscripten.clang"
  },
  "schemaVersion": "3.4.15",
  "updatedAt": "2023-10-30T06:09:23.949Z",
  "devdoc": {
    "kind": "dev",
    "methods": {},
    "version": 1
  },
  "userdoc": {
    "kind": "user",
    "methods": {},
    "version": 1
  }
}