{
  "contractName": "Election",
  "abi": [
    {
      "inputs": [],
      "stateMutability": "nonpayable",
      "type": "constructor"
    },
    {
      "inputs": [
        {
          "internalType": "uint256",
          "name": "",
          "type": "uint256"
        }
      ],
      "name": "candidates",
      "outputs": [
        {
          "internalType": "uint256",
          "name": "id",
          "type": "uint256"
        },
        {
          "internalType": "string",
          "name": "name",
          "type": "string"
        },
        {
          "internalType": "uint256",
          "name": "voteCount",
          "type": "uint256"
        }
      ],
      "stateMutability": "view",
      "type": "function"
    },
    {
      "inputs": [],
      "name": "candidatesCount",
      "outputs": [
        {
          "internalType": "uint256",
          "name": "",
          "type": "uint256"
        }
      ],
      "stateMutability": "view",
      "type": "function"
    },
    {
      "inputs": [
        {
          "internalType": "uint256",
          "name": "_candidateId",
          "type": "uint256"
        }
      ],
      "name": "vote",
      "outputs": [],
      "stateMutability": "nonpayable",
      "type": "function"
    }
  ],
  "bytecode": "0x608060405234801562000010575f80fd5b50620000576040518060400160405280600b81526020017f43616e6469646174652031000000000000000000000000000000000000000000815250620000a360201b60201c565b6200009d6040518060400160405280600b81526020017f43616e6469646174652032000000000000000000000000000000000000000000815250620000a360201b60201c565b620004dc565b60015f815480929190620000b79062000151565b9190505550604051806060016040528060015481526020018281526020015f8152505f8060015481526020019081526020015f205f820151815f015560208201518160010190816200010a9190620003f8565b506040820151816002015590505050565b7f4e487b71000000000000000000000000000000000000000000000000000000005f52601160045260245ffd5b5f819050919050565b5f6200015d8262000148565b91507fffffffffffffffffffffffffffffffffffffffffffffffffffffffffffffffff82036200019257620001916200011b565b5b600182019050919050565b5f81519050919050565b7f4e487b71000000000000000000000000000000000000000000000000000000005f52604160045260245ffd5b7f4e487b71000000000000000000000000000000000000000000000000000000005f52602260045260245ffd5b5f60028204905060018216806200021957607f821691505b6020821081036200022f576200022e620001d4565b5b50919050565b5f819050815f5260205f209050919050565b5f6020601f8301049050919050565b5f82821b905092915050565b5f60088302620002937fffffffffffffffffffffffffffffffffffffffffffffffffffffffffffffffff8262000256565b6200029f868362000256565b95508019841693508086168417925050509392505050565b5f819050919050565b5f620002e0620002da620002d48462000148565b620002b7565b62000148565b9050919050565b5f819050919050565b620002fb83620002c0565b620003136200030a82620002e7565b84845462000262565b825550505050565b5f90565b620003296200031b565b62000336818484620002f0565b505050565b5b818110156200035d57620003515f826200031f565b6001810190506200033c565b5050565b601f821115620003ac57620003768162000235565b620003818462000247565b8101602085101562000391578190505b620003a9620003a08562000247565b8301826200033b565b50505b505050565b5f82821c905092915050565b5f620003ce5f1984600802620003b1565b1980831691505092915050565b5f620003e88383620003bd565b9150826002028217905092915050565b62000403826200019d565b67ffffffffffffffff8111156200041f576200041e620001a7565b5b6200042b825462000201565b6200043882828562000361565b5f60209050601f8311600181146200046e575f841562000459578287015190505b620004658582620003db565b865550620004d4565b601f1984166200047e8662000235565b5f5b82811015620004a75784890151825560018201915060208501945060208101905062000480565b86831015620004c75784890151620004c3601f891682620003bd565b8355505b6001600288020188555050505b505050505050565b61049a80620004ea5f395ff3fe608060405234801561000f575f80fd5b506004361061003f575f3560e01c80630121b93f146100435780632d35a8a21461005f5780633477ee2e1461007d575b5f80fd5b61005d60048036038101906100589190610212565b6100af565b005b61006761012a565b604051610074919061024c565b60405180910390f35b61009760048036038101906100929190610212565b610130565b6040516100a6939291906102ef565b60405180910390f35b5f811180156100c057506001548111155b6100ff576040517f08c379a00000000000000000000000000000000000000000000000000000000081526004016100f690610375565b60405180910390fd5b5f808281526020019081526020015f206002015f815480929190610122906103c0565b919050555050565b60015481565b5f602052805f5260405f205f91509050805f01549080600101805461015490610434565b80601f016020809104026020016040519081016040528092919081815260200182805461018090610434565b80156101cb5780601f106101a2576101008083540402835291602001916101cb565b820191905f5260205f20905b8154815290600101906020018083116101ae57829003601f168201915b5050505050908060020154905083565b5f80fd5b5f819050919050565b6101f1816101df565b81146101fb575f80fd5b50565b5f8135905061020c816101e8565b92915050565b5f60208284031215610227576102266101db565b5b5f610234848285016101fe565b91505092915050565b610246816101df565b82525050565b5f60208201905061025f5f83018461023d565b92915050565b5f81519050919050565b5f82825260208201905092915050565b5f5b8381101561029c578082015181840152602081019050610281565b5f8484015250505050565b5f601f19601f8301169050919050565b5f6102c182610265565b6102cb818561026f565b93506102db81856020860161027f565b6102e4816102a7565b840191505092915050565b5f6060820190506103025f83018661023d565b818103602083015261031481856102b7565b9050610323604083018461023d565b949350505050565b7f496e76616c69642063616e6469646174652049440000000000000000000000005f82015250565b5f61035f60148361026f565b915061036a8261032b565b602082019050919050565b5f6020820190508181035f83015261038c81610353565b9050919050565b7f4e487b71000000000000000000000000000000000000000000000000000000005f52601160045260245ffd5b5f6103ca826101df565b91507fffffffffffffffffffffffffffffffffffffffffffffffffffffffffffffffff82036103fc576103fb610393565b5b600182019050919050565b7f4e487b71000000000000000000000000000000000000000000000000000000005f52602260045260245ffd5b5f600282049050600182168061044b57607f821691505b60208210810361045e5761045d610407565b5b5091905056fea2646970667358221220443a1d08143bd71897ccd9bd347dc99835cdf28ff628147bf2051150811c074564736f6c63430008150033",
  "immutableReferences": {},
  "source": "// SPDX-License-Identifier: MIT\npragma solidity ^0.8.0;\n\ncontract Election {\n    struct Candidate {\n        uint id;\n        string name;\n        uint voteCount;\n    }\n\n    mapping(uint => Candidate) public candidates;\n    uint public candidatesCount;\n\n    constructor() {\n        addCandidate(\"Candidate 1\");\n        addCandidate(\"Candidate 2\");\n    }\n\n    function addCandidate(string memory _name) private {\n        candidatesCount++;\n        candidates[candidatesCount] = Candidate(candidatesCount, _name, 0);\n    }\n\n    function vote(uint _candidateId) public {\n        require(\n            _candidateId > 0 && _candidateId <= candidatesCount,\n            \"Invalid candidate ID\"\n        );\n        candidates[_candidateId].voteCount++;\n    }\n}\n",
  "sourcePath": "/Users/docflex/Downloads/Vote/contracts/Election.sol",
  "compiler": {
    "name": "solc",
    "version": "0.8.21+commit.d9974bed.Emscripten.clang"
  },
  "schemaVersion": "3.4.15",
  "updatedAt": "2023-10-09T08:48:25.473Z",
  "devdoc": {
    "kind": "dev",
    "methods": {},
    "version": 1
  },
  "userdoc": {
    "kind": "user",
    "methods": {},
    "version": 1
  }
}