{
  "contractName": "EducationDApp",
  "abi": [
    {
      "inputs": [],
      "stateMutability": "nonpayable",
      "type": "constructor"
    },
    {
      "inputs": [
        {
          "internalType": "uint256",
          "name": "",
          "type": "uint256"
        }
      ],
      "name": "courses",
      "outputs": [
        {
          "internalType": "string",
          "name": "name",
          "type": "string"
        },
        {
          "internalType": "uint256",
          "name": "fee",
          "type": "uint256"
        }
      ],
      "stateMutability": "view",
      "type": "function"
    },
    {
      "inputs": [],
      "name": "owner",
      "outputs": [
        {
          "internalType": "address",
          "name": "",
          "type": "address"
        }
      ],
      "stateMutability": "view",
      "type": "function"
    },
    {
      "inputs": [
        {
          "internalType": "address",
          "name": "",
          "type": "address"
        }
      ],
      "name": "students",
      "outputs": [
        {
          "internalType": "string",
          "name": "name",
          "type": "string"
        },
        {
          "internalType": "uint256",
          "name": "age",
          "type": "uint256"
        }
      ],
      "stateMutability": "view",
      "type": "function"
    },
    {
      "inputs": [
        {
          "internalType": "string",
          "name": "name",
          "type": "string"
        },
        {
          "internalType": "uint256",
          "name": "age",
          "type": "uint256"
        }
      ],
      "name": "addStudent",
      "outputs": [],
      "stateMutability": "nonpayable",
      "type": "function"
    },
    {
      "inputs": [
        {
          "internalType": "string",
          "name": "name",
          "type": "string"
        },
        {
          "internalType": "uint256",
          "name": "fee",
          "type": "uint256"
        }
      ],
      "name": "addCourse",
      "outputs": [],
      "stateMutability": "nonpayable",
      "type": "function"
    },
    {
      "inputs": [
        {
          "internalType": "uint256",
          "name": "courseIndex",
          "type": "uint256"
        }
      ],
      "name": "enrollStudent",
      "outputs": [],
      "stateMutability": "nonpayable",
      "type": "function"
    }
  ],
  "bytecode": "0x608060405234801561000f575f80fd5b50335f806101000a81548173ffffffffffffffffffffffffffffffffffffffff021916908373ffffffffffffffffffffffffffffffffffffffff160217905550610d268061005c5f395ff3fe608060405234801561000f575f80fd5b5060043610610060575f3560e01c80630247ce57146100645780630e5eeef714610080578063403377441461009c5780638da5cb5b146100b857806396f979d2146100d6578063a6c807a914610107575b5f80fd5b61007e6004803603810190610079919061068d565b610138565b005b61009a6004803603810190610095919061068d565b610226565b005b6100b660048036038101906100b191906106e7565b61029d565b005b6100c061038f565b6040516100cd9190610751565b60405180910390f35b6100f060048036038101906100eb91906106e7565b6103b2565b6040516100fe9291906107f3565b60405180910390f35b610121600480360381019061011c919061084b565b610467565b60405161012f9291906107f3565b60405180910390f35b5f8054906101000a900473ffffffffffffffffffffffffffffffffffffffff1673ffffffffffffffffffffffffffffffffffffffff163373ffffffffffffffffffffffffffffffffffffffff16146101c5576040517f08c379a00000000000000000000000000000000000000000000000000000000081526004016101bc906108e6565b60405180910390fd5b6002604051806040016040528084815260200183815250908060018154018082558091505060019003905f5260205f2090600202015f909190919091505f820151815f0190816102159190610afe565b506020820151816001015550505050565b60405180604001604052808381526020018281525060015f3373ffffffffffffffffffffffffffffffffffffffff1673ffffffffffffffffffffffffffffffffffffffff1681526020019081526020015f205f820151815f01908161028b9190610afe565b50602082015181600101559050505050565b60028054905081106102e4576040517f08c379a00000000000000000000000000000000000000000000000000000000081526004016102db90610c17565b60405180910390fd5b5f600282815481106102f9576102f8610c35565b5b905f5260205f2090600202019050601260015f3373ffffffffffffffffffffffffffffffffffffffff1673ffffffffffffffffffffffffffffffffffffffff1681526020019081526020015f2060010154101561038b576040517f08c379a000000000000000000000000000000000000000000000000000000000815260040161038290610cd2565b60405180910390fd5b5050565b5f8054906101000a900473ffffffffffffffffffffffffffffffffffffffff1681565b600281815481106103c1575f80fd5b905f5260205f2090600202015f91509050805f0180546103e090610931565b80601f016020809104026020016040519081016040528092919081815260200182805461040c90610931565b80156104575780601f1061042e57610100808354040283529160200191610457565b820191905f5260205f20905b81548152906001019060200180831161043a57829003601f168201915b5050505050908060010154905082565b6001602052805f5260405f205f91509050805f01805461048690610931565b80601f01602080910402602001604051908101604052809291908181526020018280546104b290610931565b80156104fd5780601f106104d4576101008083540402835291602001916104fd565b820191905f5260205f20905b8154815290600101906020018083116104e057829003601f168201915b5050505050908060010154905082565b5f604051905090565b5f80fd5b5f80fd5b5f80fd5b5f80fd5b5f601f19601f8301169050919050565b7f4e487b71000000000000000000000000000000000000000000000000000000005f52604160045260245ffd5b61056c82610526565b810181811067ffffffffffffffff8211171561058b5761058a610536565b5b80604052505050565b5f61059d61050d565b90506105a98282610563565b919050565b5f67ffffffffffffffff8211156105c8576105c7610536565b5b6105d182610526565b9050602081019050919050565b828183375f83830152505050565b5f6105fe6105f9846105ae565b610594565b90508281526020810184848401111561061a57610619610522565b5b6106258482856105de565b509392505050565b5f82601f8301126106415761064061051e565b5b81356106518482602086016105ec565b91505092915050565b5f819050919050565b61066c8161065a565b8114610676575f80fd5b50565b5f8135905061068781610663565b92915050565b5f80604083850312156106a3576106a2610516565b5b5f83013567ffffffffffffffff8111156106c0576106bf61051a565b5b6106cc8582860161062d565b92505060206106dd85828601610679565b9150509250929050565b5f602082840312156106fc576106fb610516565b5b5f61070984828501610679565b91505092915050565b5f73ffffffffffffffffffffffffffffffffffffffff82169050919050565b5f61073b82610712565b9050919050565b61074b81610731565b82525050565b5f6020820190506107645f830184610742565b92915050565b5f81519050919050565b5f82825260208201905092915050565b5f5b838110156107a1578082015181840152602081019050610786565b5f8484015250505050565b5f6107b68261076a565b6107c08185610774565b93506107d0818560208601610784565b6107d981610526565b840191505092915050565b6107ed8161065a565b82525050565b5f6040820190508181035f83015261080b81856107ac565b905061081a60208301846107e4565b9392505050565b61082a81610731565b8114610834575f80fd5b50565b5f8135905061084581610821565b92915050565b5f602082840312156108605761085f610516565b5b5f61086d84828501610837565b91505092915050565b7f4f6e6c7920746865206f776e65722063616e20706572666f726d2074686973205f8201527f616374696f6e0000000000000000000000000000000000000000000000000000602082015250565b5f6108d0602683610774565b91506108db82610876565b604082019050919050565b5f6020820190508181035f8301526108fd816108c4565b9050919050565b7f4e487b71000000000000000000000000000000000000000000000000000000005f52602260045260245ffd5b5f600282049050600182168061094857607f821691505b60208210810361095b5761095a610904565b5b50919050565b5f819050815f5260205f209050919050565b5f6020601f8301049050919050565b5f82821b905092915050565b5f600883026109bd7fffffffffffffffffffffffffffffffffffffffffffffffffffffffffffffffff82610982565b6109c78683610982565b95508019841693508086168417925050509392505050565b5f819050919050565b5f610a026109fd6109f88461065a565b6109df565b61065a565b9050919050565b5f819050919050565b610a1b836109e8565b610a2f610a2782610a09565b84845461098e565b825550505050565b5f90565b610a43610a37565b610a4e818484610a12565b505050565b5b81811015610a7157610a665f82610a3b565b600181019050610a54565b5050565b601f821115610ab657610a8781610961565b610a9084610973565b81016020851015610a9f578190505b610ab3610aab85610973565b830182610a53565b50505b505050565b5f82821c905092915050565b5f610ad65f1984600802610abb565b1980831691505092915050565b5f610aee8383610ac7565b9150826002028217905092915050565b610b078261076a565b67ffffffffffffffff811115610b2057610b1f610536565b5b610b2a8254610931565b610b35828285610a75565b5f60209050601f831160018114610b66575f8415610b54578287015190505b610b5e8582610ae3565b865550610bc5565b601f198416610b7486610961565b5f5b82811015610b9b57848901518255600182019150602085019450602081019050610b76565b86831015610bb85784890151610bb4601f891682610ac7565b8355505b6001600288020188555050505b505050505050565b7f496e76616c696420636f7572736520696e6465780000000000000000000000005f82015250565b5f610c01601483610774565b9150610c0c82610bcd565b602082019050919050565b5f6020820190508181035f830152610c2e81610bf5565b9050919050565b7f4e487b71000000000000000000000000000000000000000000000000000000005f52603260045260245ffd5b7f53747564656e7473206d757374206265206174206c65617374203138207965615f8201527f7273206f6c640000000000000000000000000000000000000000000000000000602082015250565b5f610cbc602683610774565b9150610cc782610c62565b604082019050919050565b5f6020820190508181035f830152610ce981610cb0565b905091905056fea264697066735822122028cec965ca229caebcd63a436521252abc193e32407d930d468eaec132f1c5bb64736f6c63430008150033",
  "immutableReferences": {},
  "source": "// SPDX-License-Identifier: MIT\npragma solidity ^0.8.0;\n\ncontract EducationDApp {\n    struct Student {\n        string name;\n        uint256 age;\n    }\n\n    struct Course {\n        string name;\n        uint256 fee;\n    }\n\n    address public owner;\n    mapping(address => Student) public students;\n    Course[] public courses;\n\n    constructor() {\n        owner = msg.sender;\n    }\n\n    modifier onlyOwner() {\n        require(msg.sender == owner, \"Only the owner can perform this action\");\n        _;\n    }\n\n    function addStudent(string memory name, uint256 age) public {\n        students[msg.sender] = Student(name, age);\n    }\n\n    function addCourse(string memory name, uint256 fee) public onlyOwner {\n        courses.push(Course(name, fee));\n    }\n\n    function enrollStudent(uint256 courseIndex) public {\n        require(courseIndex < courses.length, \"Invalid course index\");\n        Course storage course = courses[courseIndex];\n        require(\n            students[msg.sender].age >= 18,\n            \"Students must be at least 18 years old\"\n        );\n        // Additional enrollment logic can be added here\n    }\n}\n",
  "sourcePath": "/Users/docflex/Downloads/Education DApp/contracts/Education.sol",
  "compiler": {
    "name": "solc",
    "version": "0.8.21+commit.d9974bed.Emscripten.clang"
  },
  "schemaVersion": "3.4.15",
  "updatedAt": "2023-10-30T06:14:56.082Z",
  "devdoc": {
    "kind": "dev",
    "methods": {},
    "version": 1
  },
  "userdoc": {
    "kind": "user",
    "methods": {},
    "version": 1
  }
}